{
  "contractName": "HighestBidder",
  "abi": [
    {
      "constant": true,
      "inputs": [],
      "name": "currentText",
      "outputs": [
        {
          "name": "",
          "type": "string"
        }
      ],
      "payable": false,
      "stateMutability": "view",
      "type": "function",
      "signature": "0x95980858"
    },
    {
      "constant": true,
      "inputs": [],
      "name": "currentPrice",
      "outputs": [
        {
          "name": "",
          "type": "uint256"
        }
      ],
      "payable": false,
      "stateMutability": "view",
      "type": "function",
      "signature": "0x9d1b464a"
    },
    {
      "inputs": [],
      "payable": false,
      "stateMutability": "nonpayable",
      "type": "constructor",
      "signature": "constructor"
    },
    {
      "constant": false,
      "inputs": [
        {
          "name": "newText",
          "type": "string"
        }
      ],
      "name": "bid",
      "outputs": [],
      "payable": true,
      "stateMutability": "payable",
      "type": "function",
      "signature": "0x7aef951c"
    },
    {
      "constant": false,
      "inputs": [
        {
          "name": "newText",
          "type": "string"
        },
        {
          "name": "newPrice",
          "type": "uint256"
        }
      ],
      "name": "admin",
      "outputs": [],
      "payable": false,
      "stateMutability": "nonpayable",
      "type": "function",
      "signature": "0x4a7a0997"
    }
  ],
  "bytecode": "0x608060405234801561001057600080fd5b50602060405190810160405280600081525060009080519060200190610037929190610086565b50600060018190555033600260006101000a81548173ffffffffffffffffffffffffffffffffffffffff021916908373ffffffffffffffffffffffffffffffffffffffff16021790555061012b565b828054600181600116156101000203166002900490600052602060002090601f016020900481019282601f106100c757805160ff19168380011785556100f5565b828001600101855582156100f5579182015b828111156100f45782518255916020019190600101906100d9565b5b5090506101029190610106565b5090565b61012891905b8082111561012457600081600090555060010161010c565b5090565b90565b6105a58061013a6000396000f3fe608060405260043610610062576000357c0100000000000000000000000000000000000000000000000000000000900463ffffffff1680634a7a0997146100675780637aef951c1461013957806395980858146101f45780639d1b464a14610284575b600080fd5b34801561007357600080fd5b506101376004803603604081101561008a57600080fd5b81019080803590602001906401000000008111156100a757600080fd5b8201836020820111156100b957600080fd5b803590602001918460018302840111640100000000831117156100db57600080fd5b91908080601f016020809104026020016040519081016040528093929190818152602001838380828437600081840152601f19601f820116905080830192505050505050509192919290803590602001909291905050506102af565b005b6101f26004803603602081101561014f57600080fd5b810190808035906020019064010000000081111561016c57600080fd5b82018360208201111561017e57600080fd5b803590602001918460018302840111640100000000831117156101a057600080fd5b91908080601f016020809104026020016040519081016040528093929190818152602001838380828437600081840152601f19601f820116905080830192505050505050509192919290505050610396565b005b34801561020057600080fd5b50610209610430565b6040518080602001828103825283818151815260200191508051906020019080838360005b8381101561024957808201518184015260208101905061022e565b50505050905090810190601f1680156102765780820380516001836020036101000a031916815260200191505b509250505060405180910390f35b34801561029057600080fd5b506102996104ce565b6040518082815260200191505060405180910390f35b600260009054906101000a900473ffffffffffffffffffffffffffffffffffffffff1673ffffffffffffffffffffffffffffffffffffffff163373ffffffffffffffffffffffffffffffffffffffff16141515610374576040517f08c379a00000000000000000000000000000000000000000000000000000000081526004018080602001828103825260108152602001807f73656e6465722d6e6f742d61646d696e0000000000000000000000000000000081525060200191505060405180910390fd5b816000908051906020019061038a9291906104d4565b50806001819055505050565b6001543411151561040f576040517f08c379a000000000000000000000000000000000000000000000000000000000815260040180806020018281038252600b8152602001807f6269642d746f6f2d6c6f7700000000000000000000000000000000000000000081525060200191505060405180910390fd5b80600090805190602001906104259291906104d4565b503460018190555050565b60008054600181600116156101000203166002900480601f0160208091040260200160405190810160405280929190818152602001828054600181600116156101000203166002900480156104c65780601f1061049b576101008083540402835291602001916104c6565b820191906000526020600020905b8154815290600101906020018083116104a957829003601f168201915b505050505081565b60015481565b828054600181600116156101000203166002900490600052602060002090601f016020900481019282601f1061051557805160ff1916838001178555610543565b82800160010185558215610543579182015b82811115610542578251825591602001919060010190610527565b5b5090506105509190610554565b5090565b61057691905b8082111561057257600081600090555060010161055a565b5090565b9056fea165627a7a7230582083f276a55e328f11c6345e764fa67f9fa1b5fa3be8a83c8f1902926d4390de520029",
  "source": "pragma solidity ^0.5.0;\n\ncontract HighestBidder {\n    string public currentText;\n    uint public currentPrice;\n    address owner;\n\n    constructor() public {\n        currentText = \"\";\n        currentPrice = 0;\n        owner = msg.sender;\n    }\n\n    function bid(string memory newText) public payable {\n        require(msg.value > currentPrice, \"bid-too-low\");\n        currentText = newText;\n        currentPrice = msg.value;\n    }\n\n    function admin(string memory newText, uint newPrice) public {\n        require(msg.sender == owner, \"sender-not-admin\");\n        currentText = newText;\n        currentPrice = newPrice;\n    }\n}\n",
  "sourcePath": "/Users/sprusr/Code/wordbid/contracts/HighestBidder.sol",
  "compiler": {
    "name": "solc",
    "version": "0.5.0+commit.1d4f565a.Emscripten.clang"
  },
  "schemaVersion": "3.0.2",
  "updatedAt": "2019-02-23T19:48:28.885Z",
  "devdoc": {
    "methods": {}
  },
  "userdoc": {
    "methods": {}
  }
}